:10000000CCC00000DBC00000D9C00000D7C0000099
:10001000D5C00000D3C00000D1C00000CFC0000098
:10002000CDC00000CBC00000A5C500000C9427087F
:10003000C5C00000C3C00000C1C00000BFC00000B8
:10004000A0C30000EDC3000035C40000B7C000002D
:10005000B5C00000B3C00000B1C00000AFC00000D8
:10006000ADC000000C94ED08A9C00000A7C00000BE
:10007000A5C00000A3C00000A1C000009FC00000F8
:1000800043C4000050C4000099C0000097C00000A5
:1000900095C0000093C0000091C000008FC0000018
:1000A0008DC000008BC0000089C00000F306190756
:1000B00071071B07710720073A07710742075507A9
:1000C00067726575656C2E6F72673A6869647263F2
:1000D0006A6F79004D617269757320477265756545
:1000E0006C00522F4320746F205043204A6F797365
:1000F0007469636B001201000200000008C016E87A
:100100000301010102030109022200010100803202
:10011000090400000103000000092111010001226F
:1001200070000705810308000A05010904A10109FF
:100130000185017508150026FF00350046FF00A166
:10014000000930093195028102C0A100093209334A
:1001500095028102C0A10009340935093695038151
:1001600002C0A1020600FF850295100900B10285B8
:100170000395120903B102850495010904B10285B2
:100180000595010905B102850695010906B10285AB
:100190000795010907B102C0C00011241FBECFEFAF
:1001A000DAE0DEBFCDBF21E0A0E0B1E001C01D92EA
:1001B000A73AB207E1F746D50C94C90921CF81E1EE
:1001C00080930401109205018CEA9DE09093080150
:1001D000809307018CED95E090930A0180930901CB
:1001E00086E292E090930C0180930B0110920D0136
:1001F000EEE0F1E080E081938F5F8730E1F70895D2
:10020000E82FF0E0ED5FFE4FE3858091A4018823A5
:10021000F9F08091A001E817B0F48FB7F894F0E0FE
:10022000EE0FFF1FE757FE4F608171818FBF43E0E4
:10023000660F771F4A95E1F7CB0154E096958795B5
:100240005A95E1F708958091090190910A01089566
:10025000809175018823F9F080917201E81798F771
:100260008FB7F894F0E0EE0FFF1FE35DFE4F23A180
:1002700034A18FBF3F70A8E7B5E00E947109DC018F
:10028000CB012CE0B695A795979587952A95D1F740
:10029000805E9C4F089580E090E00895FF920F9358
:1002A0001F93CF93DF938091A401811106C08091A9
:1002B0007501811105C0F12C05C0FF24F39402C023
:1002C00052E0F52E81E08093250106E211E0C0E0C6
:1002D000D0E0FF2009F441C08C2F92DF20910B0168
:1002E00030910C014091090150910A01BC01641B3D
:1002F000750B80910D0190E00C2E02C095958795AD
:100300000A94E2F780FF03C0719561957109CB01F2
:10031000770FAA0BBB0BBC01CD0147E0660F771F1F
:10032000881F991F4A95D1F7032E000C440B550BDB
:10033000B6D7DA01C90180589F4FAF4FBF4FB7FD05
:1003400008C08F3F9105A105B10509F024F4282FBD
:1003500005C020E003C02FEF01C020E8F801219381
:100360008F012196C730D10509F0B3CFDF91CF912E
:100370001F910F91FF900895E1EEF0E080818F7E54
:1003800080830895E8EEF0E080818E7B808308957D
:10039000E8EEF0E080818B7E808308951092A601C4
:1003A0009091E8008091E1002091A601211104C004
:1003B000897011F494FF02C081E0089590FFF0CF9E
:1003C00080E00895EF92FF921F93CF93DF9381E037
:1003D0008093E9008091E80085FF2EC05FDF10E088
:1003E00085E2E82E81E0F82EC8E0D0E0D7DF811169
:1003F00017C08091E80085FF07C0F70181917F0158
:100400008093F1002197A9F78091E80085FD16C03F
:100410008091E8008E738093E80010E0209731F718
:10042000112341F0BBDF811105C08091E8008E737C
:100430008093E80081E004C080E002C011E0EECFCC
:10044000DF91CF911F91FF90EF9008951092A60138
:100450009091E8008091E1002091A601211102C055
:10046000897011F081E0089592FFF2CF80E0089545
:100470000F931F93CF93DF938C01EB01209791F0A3
:10048000E5DF811110C08091F200882349F090913E
:10049000F100F80191938F01219781502097A9F7DE
:1004A00077DFECCF80E0DF91CF911F910F9108951E
:1004B000BF92CF92DF92EF92FF920F931F93CF9351
:1004C000DF938C017B01EA016901FC018281938148
:1004D000480F591F208131812417350748F48217AE
:1004E000930720F4E901C81BD90B02C0C0E0D0E09B
:1004F000F80153834283BB24B394209711F14EDF5C
:10050000811120C08091F2008830A0F4F1E0CF1674
:10051000D10419F4F701949102C0F70190819093EE
:10052000F100FFEFEF1AFF0A21978F5F209761F725
:10053000883021F427DFF8011482DFCFF801B4827C
:10054000DCCF80E0DF91CF911F910F91FF90EF9072
:10055000DF90CF90BF900895CF93DF931F92CDB7D8
:10056000DEB7698320E030E041E050E0BE016F5F1C
:100570007F4F9EDF0F90DF91CF910895CF93FC01C5
:100580008481811107C02281338180819181281764
:10059000390720F403DF811101C0F4DE57DFC82FD3
:1005A000811101C0F5DE8C2FCF910895CF93DF9399
:1005B00000D000D01F92CDB7DEB79A8389831C820A
:1005C0001B821D82CE01019673DFCE010196D6DF1C
:1005D000882311F082E001C080E00F900F900F900F
:1005E0000F900F90DF91CF910895CF92DF92EF920D
:1005F000FF920F931F93CF93DF9300D000D01F92F1
:10060000CDB7DEB76B019A8389831C821B821D8262
:10061000E42EF12CB7016F5F7F4F660FCE0101967C
:100620009BDF63E0CE01019697DF8601EC0CFD1C99
:100630000E151F0579F021E030E041E050E0B801EF
:10064000CE01019635DF60E0CE01019685DF0F5FB8
:100650001F4FEECFCE01019691DF882311F082E08B
:1006600001C080E00F900F900F900F900F90DF91DE
:10067000CF911F910F91FF90EF90DF90CF90089551
:10068000CF93DF9300D000D01F92CDB7DEB7FB0130
:1006900082819381292F33272330310529F170F48A
:1006A00021303105D1F02230310509F061C021E05F
:1006B00030E042E250E067E071E056C0213231059F
:1006C00009F44CC02232310509F052C021E030E07B
:1006D00040E750E069E271E047C021E030E042E1EC
:1006E00050E065EF70E040C099278130910579F1C5
:1006F00050F08230910539F1039709F039C043E198
:1007000060EC70E027C0868197819A8389831C8280
:100710001B821D8264E0CE0101961EDF63E0CE01E4
:1007200001961ADF69E0CE01019616DF64E0CE0182
:10073000019612DFCE01019621DF882311F082E0BD
:1007400018C080E016C042E162EE70E003C04DE0E8
:1007500064ED70E08681978148DF0BC021E030E0D6
:1007600049E050E069E171E0868197811FDF01C0B7
:1007700081E00F900F900F900F900F90DF91CF912D
:1007800008951F920F920FB60F9211242F933F934B
:100790004F935F938F939F93EF93FF9320918600E6
:1007A0003091870080919B0190919C01820F931F53
:1007B000909389008093880040919D0150919E0103
:1007C00030939E0120939D018091A201813031F4EC
:1007D00082E08093A20110929F0115C08091A20136
:1007E000823089F480919F01893068F4E82FF0E02D
:1007F000241B350BEE0FFF1FE958FE4F318320837A
:100800008F5F80939F01FF91EF919F918F915F91F7
:100810004F913F912F910F900FBE0F901F90189501
:100820001F920F920FB60F9211242F934F935F9345
:100830008F939F93EF93FF938091A201811102C048
:1008400081E02AC08091A201823041F520919F0170
:10085000243020F180E090E0821740F4FC01EE0F9C
:10086000FF1FE958FE4F4081518102C040E050E037
:10087000FC01EE0FFF1FE757FE4F518340830196A7
:100880008930910549F72093A00181E08093A4016C
:100890008093A5011092A1018093A201FF91EF9195
:1008A0009F918F915F914F912F910F900FBE0F905D
:1008B0001F9018951F920F920FB60F9211248F93CD
:1008C0009F9380918A0090918B008053984F9093D2
:1008D0008B0080938A008091A101843630F480914E
:1008E000A1018F5F8093A10108C01092A101109215
:1008F000A2011092A4011092A5019F918F910F90D7
:100900000FBE0F901F9018951F920F920FB60F9267
:1009100011248F9381E0809374018F910F900FBE0B
:100920000F901F9018951F920F920FB60F921124DF
:100930008F939F9380919A0090919B008053984F42
:1009400090939B0080939A0080917301893130F4D9
:10095000809173018F5F8093730108C010927301BF
:100960001092740110927501109276019F918F91EF
:100970000F900FBE0F901F901895FC0184A5109248
:100980008000811102C082EC01C082E88093810066
:100990008091840090918500019790938B008093C3
:1009A0008A00909389008093880086B3866286BB14
:1009B00086E280936F00809184009091850024A14D
:1009C00035A1280F391F3093890020938800805368
:1009D000984F90938B0080938A0013A615A616A6B5
:1009E0000895E3E0F1E08281817024813581220F56
:1009F000331FE7E7F1E035A324A384A7CF01BDCFE0
:100A000042E150E060E070E083E091E09BD48091AF
:100A10000401813121F58091070190910801805DE9
:100A2000974081349F41D8F48091090190910A0147
:100A3000845F9140853C994090F480910B019091A6
:100A40000C010A978F3A9B4050F4EEE0F1E081915F
:100A5000873028F481E0E531F807C9F7C2CFAFDB72
:100A6000FDCFCF93DF93EC018091E10082FF04C0C2
:100A70008091E20082FD51C08091E10080FF04C0BE
:100A80008091E20080FD4FC08091E10084FF18C09A
:100A90008091E20084FF14C06FDC8091E2008F7EC1
:100AA0008093E2008091E20081608093E20088817F
:100AB000863031F48A81882309F44BC085E088832D
:100AC0008091E10085FF04C08091E20085FD49C06E
:100AD0008091E10083FF4BC08091E20083FF47C01B
:100AE00081E08093A6018091E100877F8093E100FF
:100AF0001092E9008091EB0081608093EB001092EE
:100B0000EC0082E08093ED008091F000886080939B
:100B1000F00083E088831A822AC08091E1008B7FF5
:100B20008093E100A9CF81E08093A60125DC80912C
:100B3000E1008E7F8093E1008091E2008E7F8093C0
:100B4000E2008091E20080618093E20086E0888389
:100B50009BCF8091E30087FF02C084E0B0CF83E0A9
:100B6000AECF8091E1008F7D8093E100B1CFDF9126
:100B7000CF9108951F920F920FB60F9211242F93C9
:100B80003F934F935F936F937F938F939F93AF9315
:100B9000BF93EF93FF9380E091E063DFFF91EF91CC
:100BA000BF91AF919F918F917F916F915F914F9185
:100BB0003F912F910F900FBE0F901F901895CF93DC
:100BC000DF93EC0181E0888319821A828091D7003B
:100BD00081608093D7008091D8008F778093D80070
:100BE0008091D80080688093D8008091D80080617F
:100BF0008093D8008091D80080628093D80009B497
:100C000000FE1AC08091D8008F7D8093D80080911B
:100C1000E0008E7F8093E000AFDB8091E1008E7F6B
:100C20008093E1008091E2008D608093E20082E099
:100C30008883DF91CF91089582E189BD09B400FED8
:100C4000FDCFE0CF9CE088E10FB6F894A8958093A3
:100C500060000FBE9093600054985C9A3F9A87E7BB
:100C600091E08BDE1092900022E020939100809121
:100C7000940090919500019790939900809398002B
:100C800090939B0080939A0088B3866088BB86E02F
:100C90008093710040E150E05093CD004093CC0030
:100CA0002093C80090E99093C9008093CA00809176
:100CB0009400909195009C01205F384D30939900ED
:100CC000209398008053984F90939B0080939A00B4
:100CD00010927401109275011092760180E091E0FB
:100CE0006EDF8EDE7894A8958091A401882379F038
:100CF0008091A5018823B9F380910001853099F78F
:100D000061DB882381F3379A1092A501ECCF479AD3
:100D100080910001853039F755DBE5CFDC01FB011F
:100D20008081811111C08281813009F040C011960B
:100D30008C911197442311F0826001C08D7F119630
:100D40008C9320DB80E00895823089F582818111C7
:100D50002EC084818F77873060F5882391F380934C
:100D6000E9009091EB0090FD03C01092E90021C0D2
:100D7000442321F08091EB00806214C09091EB003D
:100D800090619093EB0021E030E0A90102C0440F94
:100D9000551F8A95E2F74093EA001092EA0080918D
:100DA000EB0088608093EB001092E900CACF81E0ED
:100DB000089582E00895EF92FF920F931F93CF93CF
:100DC000DF9300D0CDB7DEB7DB011196EC914E2F4B
:100DD00050E04A30510508F084C08B017C01FA01D3
:100DE000EA5AFF4F78C2FB018081803819F4F7017D
:100DF000818115C0813891F0823809F072C0FB0101
:100E000084818F77873098F48093E9008091EB009C
:100E100085FB882780F91092E90001C080E090E00E
:100E20009A83898320E030E042E050E036C082E0DF
:100E300059C040E001C041E0B801C7016FDF52C0B6
:100E4000FB01808181114DC08091E30092819F77E9
:100E50008078892B8093E30095DA8091E80080FF09
:100E6000FCCF8091E30080688093E30084E0F70189
:100E7000808335C0FB018081807E803891F5C70179
:100E8000FFDB30C0FB018081803859F5F70182819A
:100E9000898320E030E041E050E0BE016F5F7F4F8A
:100EA000F8018681978182DB1DC0FB018081811161
:100EB00018C068DA85E0F7018083F8018281F701C4
:100EC000828381E08093E9008091EB0081608093D0
:100ED000EB0081EC8093EC0086E08093ED0080E0F5
:100EE00001C081E00F900F90DF91CF911F910F9182
:100EF000FF90EF900895CF92DF92EF92FF920F93C1
:100F00001F93CF93DF931F92CDB7DEB79C018B0168
:100F1000FB019081913A09F053C0F180F1E0FF129A
:100F200087C0FB018281938199278230910571F0FE
:100F300083309105D9F1019709F07EC0AFD920E047
:100F400030E048E050E065E271E02BC08091A40100
:100F5000811108C080917501811102C0F12C02C07D
:100F600092E0F92E82E080931501F092160187E15C
:100F7000C82E81E0D82EE12CFF2019F08E2D40D90B
:100F800002C080E090E0F601819391936F01E394B9
:100F9000F7E0EF12F1CF20E030E040E150E065E112
:100FA00071E0F8018681978101DB47C083E080937F
:100FB000030120E030E042E150E063E071E0F1CF76
:100FC000913209F035C0FB018181893089F5828138
:100FD00089838530E1F038F4833089F0843061F51D
:100FE000EED8FFDC1DC08630A1F0873029F561E026
:100FF00070E0CE0101963CDAC5D900C817C062E1A5
:1010000070E083E091E034DABDD9EBDC0FC0F8DCAE
:1010100007C042E150E060E070E083E091E0A2D1DF
:1010200061E070E0CE01019623DAACD980E005C022
:10103000B801C901C0DE01C081E00F90DF91CF91FE
:101040001F910F91FF90EF90DF90CF9008951F9226
:101050000F920FB60F9211241F932F933F934F932C
:101060005F936F937F938F939F93AF93BF93EF9310
:10107000FF93CF93DF93CDB7DEB72897DEBFCDBF09
:101080001091E9001092E9008091E80083FF29C0E7
:101090008091F000877F8093F000789479D9FE01E9
:1010A0003196CE010996BF012091F1002193E817F6
:1010B000F907D1F78091E800877F8093E80080E00E
:1010C00091E019DF882329F08091EB008062809302
:1010D000EB001092E900F8948091F0008860809312
:1010E000F0001093E90028960FB6F894DEBF0FBE0B
:1010F000CDBFDF91CF91FF91EF91BF91AF919F91C4
:101100008F917F916F915F914F913F912F911F919F
:101110000F900FBE0F901F9018950F931F93CF93B2
:10112000DF93FC01EC5BFF4F20812250DC01A20F1A
:10113000B11D2C9130E0322F222711964C91242B97
:1011400070817250FC01DC0140E050E0CA2FC81BE6
:10115000C71790F4CD915C27C8E08A01000F111FDA
:1011600057FF06C0A801D1E24D27D0E15D2701C09D
:10117000A801C15091F7EACF4217530721F540E08B
:1011800050E0461798F4218130E0322F22277281F7
:10119000272BDA01AA0FBB1FA80FB91F94963C9307
:1011A0002E9393974F5F5F4F3296EBCFFC01EB5B33
:1011B000FF4F6083339621E020833196208333975D
:1011C0001082319604C0FC01ED5BFF4F24EF2083B9
:1011D000DF91CF911F910F9108951F920F920FB63B
:1011E0000F9211242F933F934F935F936F937F93AD
:1011F0008F939F93AF93BF93EF93FF932091CE0074
:101200008091940090919500805F984D9093990003
:101210008093980080917401813029F482E080935A
:1012200074011092710180917401823039F58091BE
:101230007101833218F5E091710181E08E0F809386
:101240007101F0E0E35DFE4F208380912D01813A32
:1012500029F4809171018B3119F405C0823A29F08B
:10126000109273010BC06CE005C080917101833254
:10127000B9F760E18DE291E050DFF2CFFF91EF919D
:10128000BF91AF919F918F917F916F915F914F919E
:101290003F912F910F900FBE0F901F901895052E24
:1012A00097FB16F400940FD057FD05D029D007FC0A
:1012B00002D046F408C050954095309521953F4F97
:1012C0004F4F5F4F089590958095709561957F4F32
:1012D0008F4F9F4F0895EE0FFF1F0590F491E02D63
:1012E0000994A29FB001B39FC001A39F700D811DFF
:1012F0001124911DB29F700D811D1124911D08951F
:10130000A1E21A2EAA1BBB1BFD010DC0AA1FBB1F09
:10131000EE1FFF1FA217B307E407F50720F0A21B7B
:10132000B30BE40BF50B661F771F881F991F1A94E8
:1013300069F760957095809590959B01AC01BD0112
:10134000CF010895DC01CB01FC01F999FECF06C065
:10135000F2BDE1BDF89A319600B40D924150504073
:10136000B8F70895DC01CB0102C02D9105D04150A2
:101370005040D8F70895262FF999FECF1FBA92BD95
:1013800081BD20BD0FB6F894FA9AF99A0FBE019666
:061390000895F894FFCF60
:00000001FF
