:10000000ECC0000006C1000004C1000002C10000F5
:1000100000C10000FEC00000FCC00000FAC00000EB
:10002000F8C000000C948208B3C500000C94450B86
:10003000F0C00000EEC00000ECC00000EAC000000C
:100040000C942C08ACC3000005C40000E2C0000002
:10005000E0C00000DEC00000DCC00000DAC000002C
:10006000D8C00000D6C00000D4C00000D2C000003C
:10007000D0C00000CEC00000CCC00000CAC000004C
:10008000C8C00000C6C00000C4C00000C2C000005C
:10009000C0C00000BEC00000BCC00000BAC000006C
:1000A000B8C00000B6C00000B4C000007E09A409BA
:1000B000E209A609E209AB09C609E209CD09E0098E
:1000C000080B000202020000090400000102020005
:1000D0000005240010010424020605240600010581
:1000E0002401010107058103080040090401000201
:1000F0000A000000070582024000000705030240D5
:10010000000067726575656C2E6F72673A726332B4
:10011000757362004D61726975732047726575650C
:100120006C00522F4320746F20555342204A6F7940
:10013000737469636B00090264000301008032126A
:100140000100020000000841233680010101020382
:10015000010904020001030000000921110100014E
:100160002270000705840308000A05010904A101A3
:10017000090185017508150026FF00350046FF00BE
:10018000A1000930093195028102C0A1000932099C
:100190003395028102C0A10009340935093695035F
:1001A0008102C0A1020600FF850295160900B10276
:1001B000850395120903B102850495010904B10272
:1001C000850595010905B102850695010906B1026B
:1001D000850795010907B102C0C011241FBECFEFEA
:1001E000DAE0DEBFCDBF11E0A0E0B1E0EAECFDE176
:1001F00002C005900D92AC3FB107D9F722E0ACEFF9
:10020000B1E001C01D92A132B207E1F729D50C94EB
:10021000E30EF6CEE0911902F0911A02099580E002
:1002200090E0089581E180930302109204028CEA29
:100230009DE090930702809306028CED95E09093E9
:1002400009028093080286E292E090930B02809369
:100250000A0210920C02EDE0F2E080E081938F5FE1
:100260008730E1F7089520910A0230910B02409106
:10027000080250910902641B750B40910C0250E07A
:1002800002C0559547958A95E2F740FF03C07195E6
:1002900061957109CB01770FAA0BBB0BBC01CD0196
:1002A00047E0660F771F881F991F4A95D1F7032EE5
:1002B000000C440B550B0E94AC0B20583F4F37FDF0
:1002C00006C02F3F310509F024F4822F089580E005
:1002D00008958FEF08951F93CF93DF93E2E0F2E04C
:1002E000C481D58112811170DF93CF938BE691E0A9
:1002F0009F938F930E94F00B1F921F9381E991E0CF
:100300009F938F930E94F00BCC0FDD1FEDE2F1E085
:10031000D5A3C4A315A78DB79EB708960FB6F894BA
:100320009EBF0FBE8DBFDF91CF911F91089542E117
:1003300050E060E070E082E092E00E94850E8091E3
:100340000302813121F58091060290910702805DC0
:10035000974081349F41D8F480910802909109021E
:10036000845F9140853C994090F480910A0290917D
:100370000B020A978F3A9B4050F4EDE0F2E0819136
:10038000873028F482E0E431F807C9F7A4CF4ADFC8
:10039000FDCF9091C80095FFFCCF8093CE000895CB
:1003A000E1EEF0E080818F7E80830895E8EEF0E05A
:1003B00080818E7B80830895E8EEF0E080818B7EE3
:1003C00080830895109218029091E8008091E100D6
:1003D00020911802211104C0897011F494FF02C009
:1003E00081E0089590FFF0CF80E008951092180208
:1003F0009091E8008091E10020911802211102C043
:10040000897011F081E0089592FFF2CF80E00895A5
:100410000F931F93CF93DF938C01EB01209791F003
:10042000E5DF811110C08091F200882349F090919E
:10043000F100F80191938F01219781502097A9F73E
:10044000BBDFECCF80E0DF91CF911F910F9108953A
:10045000BF92CF92DF92EF92FF920F931F93CF93B1
:10046000DF938C017B01EA016901FC0182819381A8
:10047000480F591F208131812417350748F482170E
:10048000930720F4E901C81BD90B02C0C0E0D0E0FB
:10049000F80153834283BB24B394209711F192DF78
:1004A000811120C08091F2008830A0F4F1E0CF16D5
:1004B000D10419F4F701949102C0F701908190934F
:1004C000F100FFEFEF1AFF0A21978F5F209761F786
:1004D000883021F46BDFF8011482DFCFF801B48299
:1004E000DCCF80E0DF91CF911F910F91FF90EF90D3
:1004F000DF90CF90BF900895CF93DF931F92CDB739
:10050000DEB7698320E030E041E050E0BE016F5F7C
:100510007F4F9EDF0F90DF91CF910895CF93FC0125
:100520008481811107C022813381808191812817C4
:10053000390720F447DF811101C038DF57DFC82FAA
:10054000811101C039DF8C2FCF910895CF93DF93B4
:1005500000D000D01F92CDB7DEB79A8389831C826A
:100560001B821D82CE01019673DFCE010196D6DF7C
:10057000882311F082E001C080E00F900F900F906F
:100580000F900F90DF91CF910895CF92DF92EF926D
:10059000FF920F931F93CF93DF9300D000D01F9251
:1005A000CDB7DEB76B019A8389831C821B821D82C3
:1005B000E42EF12CB7016F5F7F4F660FCE010196DD
:1005C0009BDF63E0CE01019697DF8601EC0CFD1CFA
:1005D0000E151F0579F021E030E041E050E0B80150
:1005E000CE01019635DF60E0CE01019685DF0F5F19
:1005F0001F4FEECFCE01019691DF882311F082E0EC
:1006000001C080E00F900F900F900F900F90DF913E
:10061000CF911F910F91FF90EF90DF90CF900895B1
:10062000CF93DF9300D000D01F92CDB7DEB7FB0190
:1006300082819381292F33272330310509F441C06A
:1006400050F521303105B1F12230310509F07DC07E
:10065000868197819A8389831C821B821D8221E077
:1006600030E049E050E066E371E0CE010196F0DE53
:1006700021E030E042E450E060EC70E0CE01019611
:10068000E7DE21E030E049E150E061E571E0CE01D4
:100690000196DEDE3CC02132310509F44CC0223225
:1006A000310509F052C021E030E040E750E06AE651
:1006B00071E047C021E030E042E150E06FE371E0DB
:1006C00040C099278130910579F150F08230910531
:1006D00039F1039709F039C041E162E071E027C0C8
:1006E000868197819A8389831C821B821D8264E0A4
:1006F000CE01019601DF63E0CE010196FDDE69E0E7
:10070000CE010196F9DE64E0CE010196F5DECE0160
:10071000019604DF882311F082E018C080E016C043
:1007200043E162E271E003C04DE064E171E0868183
:1007300097812BDF0BC021E030E049E050E06AE513
:1007400071E08681978102DF01C081E00F900F90F8
:100750000F900F900F90DF91CF910895FC0181E0F1
:10076000809318029091E00091609093E000909146
:10077000D80090629093D80019BC108287E797E761
:1007800090930108809300089CE088E10FB6F894EC
:10079000A895809360000FBE90936000FFCF1F92DA
:1007A0000F920FB60F9211248F939F93AF93BF9325
:1007B00080918800909189008053984F9093890090
:1007C000809388008091140290911502A0911602E6
:1007D000B09117020196A11DB11D80931402909350
:1007E0001502A0931602B093170280915901843626
:1007F00030F4809159018F5F809359010CC01092A1
:100800005901109255011092560110925801109200
:100810005B0110925C0180912901843630F4809153
:1008200029018F5F809329010CC010922901109239
:100830002201109226011092280110922B01109291
:100840002C01BF91AF919F918F910F900FBE0F9090
:100850001F9018951F920F920FB60F9211242F938D
:100860008F939F9380915501823091F4209157018D
:10087000243070F0109259019091560181E0982730
:10088000909356012093580180935B0180935C0103
:1008900081E0809355019F918F912F910F900FBE12
:1008A0000F901F901895DC0199964C91999791E0C3
:1008B000492750E0262F30E07FB7F89489E0849FE5
:1008C000F001859FF00D1124E20FF31FEE0FFF1FC3
:1008D000EA0FFB1F808191817FBF9B962C9162174D
:1008E00058F423E0880F991F2A95E1F734E0969594
:1008F00087953A95E1F7089580E090E00895DF92BA
:10090000EF92FF920F931F93CF93DF93EC0181E05F
:1009100089930DE012E0F12CEE24E3949AE0D92EB5
:10092000F80161918F018091FD01813019F08230D1
:1009300041F027C08DE291E0B6DF009711F1BC01D4
:100940001DC080912801681768F4E0912601EE250A
:10095000DE9EF0011124E45FFE4FE60FF11D608181
:10096000609501C060E8FAE86F9FB001112485E04E
:10097000769567958A95E1F7665E7B4F8F2D73DCE0
:1009800001C080E88993F39487E0F812C9CFDF9122
:10099000CF911F910F91FF90EF90DF900895DF921C
:1009A000EF92FF920F931F93CF93DF93CDB7DEB7F4
:1009B00028970FB6F894DEBF0FBECDBF84E08093BA
:1009C000E9008091E80085FF33C0CE01019697DFF2
:1009D000D12C8E010F5F1F4F88E0E82EF12CF2DC46
:1009E00081111AC08091E80085FF09C0F80181914A
:1009F0008F018093F100F1E0EF1AF10899F78091EF
:100A0000E80085FD17C08091E8008E738093E800B0
:100A1000D12CE114F10419F7DD2041F0D3DC811170
:100A200005C08091E8008E738093E80081E005C0E6
:100A300080E003C0DD24D394ECCF28960FB6F89461
:100A4000DEBF0FBECDBFDF91CF911F910F91FF9001
:100A5000EF90DF9008951F93CF93DF93EC01809187
:100A6000E10082FF1CC08091E20082FF18C08091EB
:100A7000E1008B7F8093E1008B85882381F01091CA
:100A8000E90082E08093E9009DDC811105C080913E
:100A9000E8008E738093E8001B861093E900809134
:100AA000E10080FF04C08091E20080FD49C0809198
:100AB000E10084FF18C08091E20084FF14C070DC64
:100AC0008091E2008F7E8093E2008091E20081605D
:100AD0008093E2008881863031F48A81882309F48A
:100AE00045C085E088838091E10085FF04C0809146
:100AF000E20085FD43C08091E10083FF45C0809105
:100B0000E20083FF41C081E0809318028091E10000
:100B1000877F8093E1001092E9008091EB00816073
:100B20008093EB001092EC0082E08093ED008091C6
:100B3000F00088608093F00083E088831A8224C0EC
:100B400081E0809318022CDC8091E1008E7F8093FD
:100B5000E1008091E2008E7F8093E2008091E200CC
:100B600080618093E20086E08883A1CF8091E300DA
:100B700087FF02C084E0B6CF83E0B4CF8091E1006C
:100B80008F7D8093E100B7CFDF91CF911F910895C2
:100B90001F920F920FB60F9211242F933F934F93F2
:100BA0005F936F937F938F939F93AF93BF93EF93D5
:100BB000FF9380E091E04FDFFF91EF91BF91AF9104
:100BC0009F918F917F916F915F914F913F912F9165
:100BD0000F900FBE0F901F901895CF93DF93EC01ED
:100BE00081E0888319821A828091D7008160809386
:100BF000D7008091D8008F778093D8008091D8005B
:100C000080688093D8008091D80080618093D8005C
:100C10008091D80080628093D80009B400FE1AC089
:100C20008091D8008F7D8093D8008091E0008E7FE6
:100C30008093E000B5DB8091E1008E7F8093E1003E
:100C40008091E2008D608093E20082E08883DF91F2
:100C5000CF91089582E189BD09B400FEFDCFE0CFB8
:100C600088E19CE00FB6F894A895809360000FBED1
:100C70009093600029EC31E030931A02209319021E
:100C80002DE531E030931E0220931D0230932002A7
:100C900020931F0221E030E03093CD002093CC0060
:100CA00092E09093C8008093C90086E08093CA00C8
:100CB00054985C9A25982D9A80E280936B0081E08D
:100CC0008BBB80936800269A279A569A3F9A109277
:100CD000800082E88093810020918400309185001B
:100CE0002053384F3093890020938800B19A909117
:100CF0006F00926090936F0010928000809381004B
:100D000020918400309185002150310930938B006F
:100D100020938A0096B3946296BB90916F00946280
:100D200090936F0040918400509185002091510173
:100D300030915201240F351F30938B0020938A008D
:100D400010925501109256011092580110925B01B9
:100D500010925C011092800080938100B59A80917E
:100D60006F00806280936F00109222011092260122
:100D70001092280110922B0110922C0180E091E03A
:100D80002CDFD5DA7894C12CD12C7601C2E0D1E0E9
:100D9000A89580915B01882319F0D093FD0109C0CB
:100DA00080912B01882319F0C093FD0102C010929D
:100DB000FD018091FD01813019F0823041F034C095
:100DC00080915B01882381F180915C0106C0809154
:100DD0002B01882349F180912C018823C9F280914D
:100DE00000018530A9F6DBDD882391F280911402A1
:100DF00090911502A0911602B0911702AC01BD01AD
:100E00004C195D096E097F094093FE015093FF0163
:100E10006093000270930102379A10925C01109265
:100E20002C016C017D01B4CF479A8091000185307F
:100E300009F0AECFB4DDACCFFC0126A137A177A37A
:100E400066A380A5813021F482E080A712A60895D0
:100E500080A58230A9F482A5893090F4A1A5621BF7
:100E6000730B99E0A99FD0011124A80FB11DAA0FFF
:100E7000BB1FAE0FBF1F11967C936E938F5F82A72F
:100E80000895FC01848995899B01281B390BC901B0
:100E9000442339F08C3D954008F4DDC081E0868B19
:100EA0000895758B648B2689213041F482E0868B0E
:100EB00083E0878B108E118E138E08952689223041
:100EC00009F0C9C08C3949E0940770F48C3627E0EA
:100ED000920728F484359640A8F080E01AC0843840
:100EE000984090F082E015C08C3C2BE0920728F4EB
:100EF000843B9A4058F084E00CC0843E9C4040F013
:100F000086E007C087E005C081E003C083E001C040
:100F100085E027892350280F243008F09CC0808D5D
:100F2000883070F1418D842F90E0BC0136E07595DA
:100F300067953A95E1F733E043276427AC0174E005
:100F4000559547957A95E1F7462795958795959517
:100F500087958427837028137BC0838D8A3068F43B
:100F6000328D918DDF014AE0349FA00DB11D112417
:100F7000A80FB11D9C938F5F838F108E118E69C057
:100F8000808D8E5F808F818D34E0839FC00111241E
:100F9000822B818F838D883009F05BC0808D8430F7
:100FA00009F057C0938D818D8C3009F448C0818D34
:100FB000893009F045C0428D328D8AE0DF01839F80
:100FC000A00DB11D112416963C91DF01849FA00D48
:100FD000B11D112418963C93428D328DDF01839F01
:100FE000A00DB11D112417963C91DF01849FA00D27
:100FF000B11D112419963C93528D428D31E0432747
:10100000DF01849FA00DB11D112416964C91DF01C4
:10101000859FA00DB11D112416964C93428D528DC3
:101020003527DF01839FA00DB11D112417963C9138
:10103000DF01849FA00DB11D112417963C939E5F84
:10104000158E328D81E03827328F948F878F80A361
:10105000168A278B089508951F920F920FB60F924C
:1010600011240F931F932F933F934F935F936F938D
:101070007F938F939F93AF93BF93CF93EF93FF9300
:101080008091FC01811104C080918100806403C0C3
:10109000809181008F7B8093810000918600109168
:1010A0008700C091FC0180915A01C8130EC0809145
:1010B000510190915201800F911F90938B0080936A
:1010C0008A00B8018DE291E0B7DE4C2FB8018CE0C8
:1010D00091E0D7DE41E04C274093FC01FF91EF9176
:1010E000CF91BF91AF919F918F917F916F915F91C0
:1010F0004F913F912F911F910F910F900FBE0F9025
:101100001F9018951F920F920FB60F9211240F93F4
:101110001F932F933F934F935F936F937F938F937F
:101120009F93AF93BF93CF93EF93FF93009184006E
:1011300010918500C3B1C5FBCC27C0F980915A013D
:101140008C130EC08091510190915201800F911F1C
:1011500090938B0080938A00B8018DE291E06CDE61
:101160004C2FB8018CE091E08CDEFF91EF91CF9194
:10117000BF91AF919F918F917F916F915F914F91AF
:101180003F912F911F910F910F900FBE0F901F90C5
:101190001895DC01FB018081811111C082818130B1
:1011A00009F040C011968C911197442311F0826090
:1011B00001C08D7F11968C93F9D880E0089582301C
:1011C00089F5828181112EC084818F77873060F507
:1011D000882391F38093E9009091EB0090FD03C088
:1011E0001092E90021C0442321F08091EB0080623D
:1011F00014C09091EB0090619093EB0021E030E0FF
:10120000A90102C0440F551F8A95E2F74093EA00F6
:101210001092EA008091EB0088608093EB001092BE
:10122000E900CACF81E0089582E008950F931F93EB
:10123000CF93DF93FB012081211144C08B01EC018E
:10124000B5D885E08883F80182818A8381E0809324
:10125000E9008091EB0081608093EB0091EC90932A
:10126000EC0082E08093ED008093E9008091EB0038
:1012700081608093EB0081E88093EC0022E320936F
:10128000ED0083E08093E9008091EB008160809322
:10129000EB0080E88093EC002093ED0084E08093E5
:1012A000E9008091EB0081608093EB009093EC006B
:1012B00086E08093ED008EE78093EA001092EA00CA
:1012C00080E001C081E0DF91CF911F910F910895DF
:1012D0000F931F93CF93DF9300D0CDB7DEB7DB0121
:1012E0001196EC9111974E2F50E04A30510508F0BD
:1012F00069C08C01FA01EA5AFF4F4AC28C918038CA
:1013000019F4F801818116C0813899F0823809F00A
:1013100059C014968C9114978F77873098F48093E6
:10132000E9008091EB0085FB882780F91092E900A5
:1013300001C080E090E09A83898320E030E042E0C1
:1013400050E035C082E03FC040E001C041E0BD0157
:10135000C8011FDF38C08C91811134C08091E30037
:1013600012969C919F778078892B8093E3001ED8FA
:101370008091E80080FFFCCF8091E300806880933B
:10138000E30084E0F801808380E01DC08C91807EC2
:101390008038C1F4C80144D916C08C91803891F4CA
:1013A000F8018281898320E030E041E050E0BE0115
:1013B0006F5F7F4F16968D919C911797C7D803C08A
:1013C00035DF01C081E00F900F90DF91CF911F9129
:1013D0000F9108958F929F92AF92BF92CF92DF921A
:1013E000EF92FF920F931F93CF93DF93CDB7DEB7AA
:1013F00066970FB6F894DEBF0FBECDBF7C018B01A0
:10140000FB018081813A09F087C09181913009F018
:10141000C0C08281938199278230910579F0833011
:10142000910509F46FC0019709F014C1CE0101962E
:1014300066DA20E030E048E050E05CC09091FD01C9
:10144000913029F0923031F48091280104C08091CC
:10145000580101C080E022E029839A838B83809128
:10146000FE019091FF01A0910002B09101028D83D5
:101470009E83AF83B8878DE0C82E82E0D82E7E0190
:10148000F9E0EF0EF11C5E0127E1A20EB11C9924D8
:1014900093949AE0892EF60161916F018091FD018C
:1014A000813019F0823029F018C08DE291E0FBD92B
:1014B00016C080912801681768F4E0912601E9259B
:1014C0008E9EF0011124E45FFE4FE60FF11D808136
:1014D000809501C080E890E002C080E090E0F701D4
:1014E000819391937F01EA15FB05A9F620E030E096
:1014F00046E150E0BE016F5F7F4FF8018681978122
:1015000025D8B0C083E08093020220E030E042E1C1
:1015100050E062E072E0F1CF8132D9F5FB019181B8
:101520009930B9F582818983853021F150F4833077
:10153000B1F0843009F08EC00E9412010E946B014C
:1015400023C08630D1F0873009F084C061E070E0BC
:10155000CE0101960E9408020E94D60181C062E17C
:1015600070E082E092E00E9408020E94D6010E9490
:101570006B0174C00E94970107C042E150E060E037
:1015800070E082E092E0D1D361E070E0CE0101969C
:1015900033C0F8019481911159C0813AF9F48181E5
:1015A000813209F053C0868197819A8389831C8296
:1015B0001B821D82B7016D5F7F4F20E030E047E066
:1015C00050E0CE0101960E942802CE0101960E94B1
:1015D0008E02882309F442C082E044C08132B1F512
:1015E000F8018181823259F08332B1F1803271F594
:1015F00067E070E0C70103960E9408022DC0F80161
:101600008281F7018287228583819481A581B681B9
:101610001F922F93BF93AF939F938F9384EB91E08F
:101620009F938F93DDD0F70183819481A581B6814B
:101630000FB6F894DEBF0FBECDBF803B9440A1052E
:10164000B10551F4828580FF0BC006C0B801C70107
:101650003FDE08C081E006C00E94D60180E002C0E3
:10166000C7017CD866960FB6F894DEBF0FBECDBF1B
:10167000DF91CF911F910F91FF90EF90DF90CF906E
:10168000BF90AF909F908F9008951F920F920FB6CA
:101690000F9211241F932F933F934F935F936F9358
:1016A0007F938F939F93AF93BF93EF93FF93CF93CA
:1016B000DF93CDB7DEB72897DEBFCDBF1091E9002D
:1016C0001092E9008091E80083FF2AC08091F00029
:1016D000877F8093F00078940E94DC01FE013196B0
:1016E000CE010996BF012091F1002193E817F90777
:1016F000D1F78091E800877F8093E80080E091E057
:1017000069DE882329F08091EB0080628093EB00F2
:101710001092E900F8948091F00088608093F000C6
:101720001093E90028960FB6F894DEBF0FBECDBF28
:10173000DF91CF91FF91EF91BF91AF919F918F91E9
:101740007F916F915F914F913F912F911F910F90DA
:101750000FBE0F901F901895052E97FB16F400945E
:101760000FD057FD05D01AD007FC02D046F408C0B0
:1017700050954095309521953F4F4F4F5F4F0895BD
:1017800090958095709561957F4F8F4F9F4F0895ED
:10179000EE0FFF1F0590F491E02D0994A1E21A2E9F
:1017A000AA1BBB1BFD010DC0AA1FBB1FEE1FFF1F05
:1017B000A217B307E407F50720F0A21BB30BE40B55
:1017C000F50B661F771F881F991F1A9469F760959C
:1017D0007095809590959B01AC01BD01CF01089556
:1017E000A0E0B0E0E5EFFBE0C7C2AE014B5F5F4FAA
:1017F000FA0161917191AF0180911D0290911E02D9
:1018000002D0E2E0D5C2ABE0B0E0E8E0FCE0A4C288
:101810006C017B018A01FC0117821682838181FFA2
:10182000BFC1CE0101963C01F6019381F70193FD02
:10183000859193FF81917F01882309F4ADC18532A1
:1018400039F493FD859193FF81917F01853221F4D5
:10185000B60190E0C0D1E8CF912C212C312CFFE1D2
:10186000F315D8F08B3279F038F4803279F0833286
:10187000A1F4232D20611DC08D3261F0803369F405
:10188000232D216016C0832D8260382EE32DE46065
:101890003E2E2AC0F32DF8601DC037FC2DC020ED70
:1018A000280F2A3040F08E32B9F436FC75C1232D52
:1018B0002064322E19C036FE06C08AE0989E200DA4
:1018C0001124922E11C0EAE02E9E200D1124222E0A
:1018D000F32DF0623F2E08C08C3621F4832D8068F2
:1018E000382E02C0883641F4F70193FD859193FFAD
:1018F00081917F018111B3CF982F9F7D95549330B3
:1019000028F40C5F1F4F9FE399830DC0833631F09D
:10191000833771F0833509F055C020C0F80180810C
:1019200089830E5F1F4F88248394912C530112C02A
:101930002801F2E04F0E511CF801A080B18036FE64
:1019400003C0692D70E002C06FEF7FEFC50138D191
:101950004C018201F32DFF773F2E15C0280122E0B4
:10196000420E511CF801A080B18036FE03C0692DE3
:1019700070E002C06FEF7FEFC50117D14C01F32D6E
:10198000F0683F2E820133FC19C0822D90E088164A
:101990009906A0F4B60180E290E01DD12A94F5CF1B
:1019A000F50137FC859137FE81915F01B60190E02A
:1019B00012D121102A9421E0821A910881149104F5
:1019C00079F7E1C0843611F0893639F5F80137FE30
:1019D00007C060817181828193810C5F1F4F08C0B5
:1019E00060817181072E000C880B990B0E5F1F4FD1
:1019F000F32DFF763F2E97FF09C090958095709547
:101A000061957F4F8F4F9F4FF0683F2E2AE030E067
:101A1000A3011DD1882E861844C0853731F4232DAB
:101A20002F7EB22E2AE030E025C0932D997FB92E6B
:101A30008F36C1F018F4883579F0AEC0803719F0D0
:101A4000883721F0A9C0E92FE061BE2EB4FE0DC099
:101A5000FB2DF460BF2E09C034FE0AC0292F26607A
:101A6000B22E06C028E030E005C020E130E002C020
:101A700020E132E0F801B7FE07C060817181828108
:101A800093810C5F1F4F06C06081718180E090E000
:101A90000E5F1F4FA301DBD0882E8618FB2DFF772A
:101AA0003F2E36FE0DC0232D2E7FA22E891458F412
:101AB00034FE0BC032FC09C0832D8E7EA82E05C0DB
:101AC000B82CA32C03C0B82C01C0B92CA4FE0FC0A5
:101AD000FE01E80DF11D8081803321F49A2D997E5D
:101AE000A92E09C0A2FE06C0B394B39404C08A2DE7
:101AF000867809F0B394A3FC10C0A0FE06C0B2140F
:101B000080F4280C922C9B180DC0B21458F4B60126
:101B100080E290E060D0B394F8CFB21418F42B18A0
:101B200002C0982C212CA4FE0FC0B60180E390E0E7
:101B300052D0A2FE16C0A1FC03C088E790E002C00C
:101B400088E590E0B6010CC08A2D867851F0A1FEA0
:101B500002C08BE201C080E2A7FC8DE2B60190E0FA
:101B60003AD0891430F4B60180E390E034D09A94EE
:101B7000F8CF8A94F301E80DF11D8081B60190E061
:101B80002AD08110F6CF222009F44ECEB60180E291
:101B900090E021D02A94F7CFF6018681978102C088
:101BA0008FEF9FEF2B96E2E1F3C0FC0105906150AF
:101BB00070400110D8F7809590958E0F9F1F089563
:101BC000FC016150704001900110D8F7809590950C
:101BD0008E0F9F1F08950F931F93CF93DF93FB01E9
:101BE000238121FD03C08FEF9FEF2CC022FF16C081
:101BF00046815781248135814217530744F4A081DF
:101C0000B1819D012F5F3F4F318320838C932681CB
:101C100037812F5F3F4F3783268314C08B01EC0140
:101C2000FB010084F185E02D0995892BE1F6D801AF
:101C300016968D919C911797019617969C938E936B
:101C40001697CE01DF91CF911F910F910895FA0160
:101C5000AA27283051F1203181F1E8946F936E7FEB
:101C60006E5F7F4F8F4F9F4FAF4FB1E03ED0B4E0DC
:101C70003CD0670F781F891F9A1FA11D680F791F1D
:101C80008A1F911DA11D6A0F711D811D911DA11D2E
:101C900020D009F468943F912AE0269F112430193E
:101CA000305D3193DEF6CF010895462F4770405DD9
:101CB0004193B3E00FD0C9F7F6CF462F4F70405D88
:101CC0004A3318F0495D31FD4052419302D0A9F7E3
:101CD000EACFB4E0A6959795879577956795BA95DD
:101CE000C9F700976105710508959B01AC010A2EA3
:101CF00006945795479537952795BA95C9F7620F7A
:101D0000731F841F951FA01D0895DC01CB01FC01EA
:101D1000F999FECF06C0F2BDE1BDF89A319600B444
:101D20000D9241505040B8F70895DC01CB0102C03C
:101D30002D9105D041505040D8F70895262FF9999C
:101D4000FECF1FBA92BD81BD20BD0FB6F894FA9A9E
:101D5000F99A0FBE019608952F923F924F925F928B
:101D60006F927F928F929F92AF92BF92CF92DF92AB
:101D7000EF92FF920F931F93CF93DF93CDB7DEB710
:101D8000CA1BDB0B0FB6F894DEBF0FBECDBF0994A4
:101D90002A88398848885F846E847D848C849B84FB
:101DA000AA84B984C884DF80EE80FD800C811B8109
:101DB000AA81B981CE0FD11D0FB6F894DEBF0FBE38
:0A1DC000CDBFED010895F894FFCFA8
:101DCA0000000000E1000000000000000000000028
:101DDA0000000000000000000000000000000000F9
:101DEA0000000003000000000000000000000000E6
:101DFA0000000000000000000000000000000000D9
:101E0A0000000000000000000000000000000000C8
:101E1A0000581B0000000000000000000000000045
:101E2A0002000000000A0100000000436F6E6669AC
:101E3A006775726174696F6E3A204D696E53796E77
:101E4A006350756C736557696474683A2025750A1E
:101E5A0000436F6E66696775726174696F6E3A20C6
:101E6A00496E7665727465645369676E616C3A206F
:101E7A0025640A004F6E4576656E74436F6E747200
:101E8A006F6C4C696E6553746174654368616E6703
:101E9A0065643A2042617564526174653D256C75CA
:101EAA002C20436F6E74726F6C4C696E655374614B
:0C1EBA0074653D307825303258210A0054
:00000001FF
